{
  "_format": "hh-sol-artifact-1",
  "contractName": "TicketNFT",
  "sourceName": "contracts/TicketNFT.sol",
  "abi": [
    {
      "inputs": [
        {
          "internalType": "string",
          "name": "_name",
          "type": "string"
        },
        {
          "internalType": "string",
          "name": "_symbol",
          "type": "string"
        },
        {
          "internalType": "string",
          "name": "initialBaseURI",
          "type": "string"
        }
      ],
      "stateMutability": "nonpayable",
      "type": "constructor"
    },
    {
      "inputs": [],
      "name": "AccessControlBadConfirmation",
      "type": "error"
    },
    {
      "inputs": [
        {
          "internalType": "address",
          "name": "account",
          "type": "address"
        },
        {
          "internalType": "bytes32",
          "name": "neededRole",
          "type": "bytes32"
        }
      ],
      "name": "AccessControlUnauthorizedAccount",
      "type": "error"
    },
    {
      "inputs": [
        {
          "internalType": "address",
          "name": "sender",
          "type": "address"
        },
        {
          "internalType": "uint256",
          "name": "tokenId",
          "type": "uint256"
        },
        {
          "internalType": "address",
          "name": "owner",
          "type": "address"
        }
      ],
      "name": "ERC721IncorrectOwner",
      "type": "error"
    },
    {
      "inputs": [
        {
          "internalType": "address",
          "name": "operator",
          "type": "address"
        },
        {
          "internalType": "uint256",
          "name": "tokenId",
          "type": "uint256"
        }
      ],
      "name": "ERC721InsufficientApproval",
      "type": "error"
    },
    {
      "inputs": [
        {
          "internalType": "address",
          "name": "approver",
          "type": "address"
        }
      ],
      "name": "ERC721InvalidApprover",
      "type": "error"
    },
    {
      "inputs": [
        {
          "internalType": "address",
          "name": "operator",
          "type": "address"
        }
      ],
      "name": "ERC721InvalidOperator",
      "type": "error"
    },
    {
      "inputs": [
        {
          "internalType": "address",
          "name": "owner",
          "type": "address"
        }
      ],
      "name": "ERC721InvalidOwner",
      "type": "error"
    },
    {
      "inputs": [
        {
          "internalType": "address",
          "name": "receiver",
          "type": "address"
        }
      ],
      "name": "ERC721InvalidReceiver",
      "type": "error"
    },
    {
      "inputs": [
        {
          "internalType": "address",
          "name": "sender",
          "type": "address"
        }
      ],
      "name": "ERC721InvalidSender",
      "type": "error"
    },
    {
      "inputs": [
        {
          "internalType": "uint256",
          "name": "tokenId",
          "type": "uint256"
        }
      ],
      "name": "ERC721NonexistentToken",
      "type": "error"
    },
    {
      "anonymous": false,
      "inputs": [
        {
          "indexed": true,
          "internalType": "address",
          "name": "owner",
          "type": "address"
        },
        {
          "indexed": true,
          "internalType": "address",
          "name": "approved",
          "type": "address"
        },
        {
          "indexed": true,
          "internalType": "uint256",
          "name": "tokenId",
          "type": "uint256"
        }
      ],
      "name": "Approval",
      "type": "event"
    },
    {
      "anonymous": false,
      "inputs": [
        {
          "indexed": true,
          "internalType": "address",
          "name": "owner",
          "type": "address"
        },
        {
          "indexed": true,
          "internalType": "address",
          "name": "operator",
          "type": "address"
        },
        {
          "indexed": false,
          "internalType": "bool",
          "name": "approved",
          "type": "bool"
        }
      ],
      "name": "ApprovalForAll",
      "type": "event"
    },
    {
      "anonymous": false,
      "inputs": [
        {
          "indexed": false,
          "internalType": "uint256",
          "name": "_fromTokenId",
          "type": "uint256"
        },
        {
          "indexed": false,
          "internalType": "uint256",
          "name": "_toTokenId",
          "type": "uint256"
        }
      ],
      "name": "BatchMetadataUpdate",
      "type": "event"
    },
    {
      "anonymous": false,
      "inputs": [
        {
          "indexed": false,
          "internalType": "uint256",
          "name": "_tokenId",
          "type": "uint256"
        }
      ],
      "name": "MetadataUpdate",
      "type": "event"
    },
    {
      "anonymous": false,
      "inputs": [
        {
          "indexed": true,
          "internalType": "bytes32",
          "name": "role",
          "type": "bytes32"
        },
        {
          "indexed": true,
          "internalType": "bytes32",
          "name": "previousAdminRole",
          "type": "bytes32"
        },
        {
          "indexed": true,
          "internalType": "bytes32",
          "name": "newAdminRole",
          "type": "bytes32"
        }
      ],
      "name": "RoleAdminChanged",
      "type": "event"
    },
    {
      "anonymous": false,
      "inputs": [
        {
          "indexed": true,
          "internalType": "bytes32",
          "name": "role",
          "type": "bytes32"
        },
        {
          "indexed": true,
          "internalType": "address",
          "name": "account",
          "type": "address"
        },
        {
          "indexed": true,
          "internalType": "address",
          "name": "sender",
          "type": "address"
        }
      ],
      "name": "RoleGranted",
      "type": "event"
    },
    {
      "anonymous": false,
      "inputs": [
        {
          "indexed": true,
          "internalType": "bytes32",
          "name": "role",
          "type": "bytes32"
        },
        {
          "indexed": true,
          "internalType": "address",
          "name": "account",
          "type": "address"
        },
        {
          "indexed": true,
          "internalType": "address",
          "name": "sender",
          "type": "address"
        }
      ],
      "name": "RoleRevoked",
      "type": "event"
    },
    {
      "anonymous": false,
      "inputs": [
        {
          "indexed": true,
          "internalType": "address",
          "name": "from",
          "type": "address"
        },
        {
          "indexed": true,
          "internalType": "address",
          "name": "to",
          "type": "address"
        },
        {
          "indexed": true,
          "internalType": "uint256",
          "name": "tokenId",
          "type": "uint256"
        }
      ],
      "name": "Transfer",
      "type": "event"
    },
    {
      "inputs": [],
      "name": "ADMIN_ROLE",
      "outputs": [
        {
          "internalType": "bytes32",
          "name": "",
          "type": "bytes32"
        }
      ],
      "stateMutability": "view",
      "type": "function"
    },
    {
      "inputs": [],
      "name": "DEFAULT_ADMIN_ROLE",
      "outputs": [
        {
          "internalType": "bytes32",
          "name": "",
          "type": "bytes32"
        }
      ],
      "stateMutability": "view",
      "type": "function"
    },
    {
      "inputs": [],
      "name": "MINTER_ROLE",
      "outputs": [
        {
          "internalType": "bytes32",
          "name": "",
          "type": "bytes32"
        }
      ],
      "stateMutability": "view",
      "type": "function"
    },
    {
      "inputs": [
        {
          "internalType": "address",
          "name": "to",
          "type": "address"
        },
        {
          "internalType": "uint256",
          "name": "tokenId",
          "type": "uint256"
        }
      ],
      "name": "approve",
      "outputs": [],
      "stateMutability": "nonpayable",
      "type": "function"
    },
    {
      "inputs": [
        {
          "internalType": "address",
          "name": "owner",
          "type": "address"
        }
      ],
      "name": "balanceOf",
      "outputs": [
        {
          "internalType": "uint256",
          "name": "",
          "type": "uint256"
        }
      ],
      "stateMutability": "view",
      "type": "function"
    },
    {
      "inputs": [],
      "name": "baseTokenURI",
      "outputs": [
        {
          "internalType": "string",
          "name": "",
          "type": "string"
        }
      ],
      "stateMutability": "view",
      "type": "function"
    },
    {
      "inputs": [
        {
          "internalType": "uint256",
          "name": "tokenId",
          "type": "uint256"
        }
      ],
      "name": "getApproved",
      "outputs": [
        {
          "internalType": "address",
          "name": "",
          "type": "address"
        }
      ],
      "stateMutability": "view",
      "type": "function"
    },
    {
      "inputs": [
        {
          "internalType": "bytes32",
          "name": "role",
          "type": "bytes32"
        }
      ],
      "name": "getRoleAdmin",
      "outputs": [
        {
          "internalType": "bytes32",
          "name": "",
          "type": "bytes32"
        }
      ],
      "stateMutability": "view",
      "type": "function"
    },
    {
      "inputs": [
        {
          "internalType": "bytes32",
          "name": "role",
          "type": "bytes32"
        },
        {
          "internalType": "address",
          "name": "account",
          "type": "address"
        }
      ],
      "name": "grantRole",
      "outputs": [],
      "stateMutability": "nonpayable",
      "type": "function"
    },
    {
      "inputs": [
        {
          "internalType": "bytes32",
          "name": "role",
          "type": "bytes32"
        },
        {
          "internalType": "address",
          "name": "account",
          "type": "address"
        }
      ],
      "name": "hasRole",
      "outputs": [
        {
          "internalType": "bool",
          "name": "",
          "type": "bool"
        }
      ],
      "stateMutability": "view",
      "type": "function"
    },
    {
      "inputs": [
        {
          "internalType": "address",
          "name": "owner",
          "type": "address"
        },
        {
          "internalType": "address",
          "name": "operator",
          "type": "address"
        }
      ],
      "name": "isApprovedForAll",
      "outputs": [
        {
          "internalType": "bool",
          "name": "",
          "type": "bool"
        }
      ],
      "stateMutability": "view",
      "type": "function"
    },
    {
      "inputs": [
        {
          "internalType": "address",
          "name": "to",
          "type": "address"
        },
        {
          "internalType": "string",
          "name": "tokenURISuffix",
          "type": "string"
        }
      ],
      "name": "mintTo",
      "outputs": [
        {
          "internalType": "uint256",
          "name": "tokenId",
          "type": "uint256"
        }
      ],
      "stateMutability": "nonpayable",
      "type": "function"
    },
    {
      "inputs": [],
      "name": "name",
      "outputs": [
        {
          "internalType": "string",
          "name": "",
          "type": "string"
        }
      ],
      "stateMutability": "view",
      "type": "function"
    },
    {
      "inputs": [],
      "name": "nextTokenId",
      "outputs": [
        {
          "internalType": "uint256",
          "name": "",
          "type": "uint256"
        }
      ],
      "stateMutability": "view",
      "type": "function"
    },
    {
      "inputs": [
        {
          "internalType": "uint256",
          "name": "tokenId",
          "type": "uint256"
        }
      ],
      "name": "ownerOf",
      "outputs": [
        {
          "internalType": "address",
          "name": "",
          "type": "address"
        }
      ],
      "stateMutability": "view",
      "type": "function"
    },
    {
      "inputs": [
        {
          "internalType": "bytes32",
          "name": "role",
          "type": "bytes32"
        },
        {
          "internalType": "address",
          "name": "callerConfirmation",
          "type": "address"
        }
      ],
      "name": "renounceRole",
      "outputs": [],
      "stateMutability": "nonpayable",
      "type": "function"
    },
    {
      "inputs": [
        {
          "internalType": "bytes32",
          "name": "role",
          "type": "bytes32"
        },
        {
          "internalType": "address",
          "name": "account",
          "type": "address"
        }
      ],
      "name": "revokeRole",
      "outputs": [],
      "stateMutability": "nonpayable",
      "type": "function"
    },
    {
      "inputs": [
        {
          "internalType": "address",
          "name": "from",
          "type": "address"
        },
        {
          "internalType": "address",
          "name": "to",
          "type": "address"
        },
        {
          "internalType": "uint256",
          "name": "tokenId",
          "type": "uint256"
        }
      ],
      "name": "safeTransferFrom",
      "outputs": [],
      "stateMutability": "nonpayable",
      "type": "function"
    },
    {
      "inputs": [
        {
          "internalType": "address",
          "name": "from",
          "type": "address"
        },
        {
          "internalType": "address",
          "name": "to",
          "type": "address"
        },
        {
          "internalType": "uint256",
          "name": "tokenId",
          "type": "uint256"
        },
        {
          "internalType": "bytes",
          "name": "data",
          "type": "bytes"
        }
      ],
      "name": "safeTransferFrom",
      "outputs": [],
      "stateMutability": "nonpayable",
      "type": "function"
    },
    {
      "inputs": [
        {
          "internalType": "address",
          "name": "operator",
          "type": "address"
        },
        {
          "internalType": "bool",
          "name": "approved",
          "type": "bool"
        }
      ],
      "name": "setApprovalForAll",
      "outputs": [],
      "stateMutability": "nonpayable",
      "type": "function"
    },
    {
      "inputs": [
        {
          "internalType": "string",
          "name": "newBase",
          "type": "string"
        }
      ],
      "name": "setBaseURI",
      "outputs": [],
      "stateMutability": "nonpayable",
      "type": "function"
    },
    {
      "inputs": [
        {
          "internalType": "bytes4",
          "name": "interfaceId",
          "type": "bytes4"
        }
      ],
      "name": "supportsInterface",
      "outputs": [
        {
          "internalType": "bool",
          "name": "",
          "type": "bool"
        }
      ],
      "stateMutability": "view",
      "type": "function"
    },
    {
      "inputs": [],
      "name": "symbol",
      "outputs": [
        {
          "internalType": "string",
          "name": "",
          "type": "string"
        }
      ],
      "stateMutability": "view",
      "type": "function"
    },
    {
      "inputs": [
        {
          "internalType": "uint256",
          "name": "tokenId",
          "type": "uint256"
        }
      ],
      "name": "tokenURI",
      "outputs": [
        {
          "internalType": "string",
          "name": "",
          "type": "string"
        }
      ],
      "stateMutability": "view",
      "type": "function"
    },
    {
      "inputs": [
        {
          "internalType": "address",
          "name": "from",
          "type": "address"
        },
        {
          "internalType": "address",
          "name": "to",
          "type": "address"
        },
        {
          "internalType": "uint256",
          "name": "tokenId",
          "type": "uint256"
        }
      ],
      "name": "transferFrom",
      "outputs": [],
      "stateMutability": "nonpayable",
      "type": "function"
    }
  ],
  "bytecode": "0x608060405234801561001057600080fd5b50604051613563380380613563833981810160405281019061003291906103b6565b82828160009081610043919061067e565b508060019081610053919061067e565b5050506100867fa49807205ce4d355092ef5a8a18f56e8913cf4a201fbe287825b095693c21775336100d060201b60201c565b506100b77f9f2df0fed2c77648de5860a4cc508cd0818c85b8b8a1ab4ceeef8d981c8956a6336100d060201b60201c565b5080600990816100c7919061067e565b50505050610750565b60006100e283836101ce60201b60201c565b6101c35760016007600085815260200190815260200160002060000160008473ffffffffffffffffffffffffffffffffffffffff1673ffffffffffffffffffffffffffffffffffffffff16815260200190815260200160002060006101000a81548160ff02191690831515021790555061016061023960201b60201c565b73ffffffffffffffffffffffffffffffffffffffff168273ffffffffffffffffffffffffffffffffffffffff16847f2f8788117e7eff1d82e926ec794901d17c78024a50270940304540a733656f0d60405160405180910390a4600190506101c8565b600090505b92915050565b60006007600084815260200190815260200160002060000160008373ffffffffffffffffffffffffffffffffffffffff1673ffffffffffffffffffffffffffffffffffffffff16815260200190815260200160002060009054906101000a900460ff16905092915050565b600033905090565b6000604051905090565b600080fd5b600080fd5b600080fd5b600080fd5b6000601f19601f8301169050919050565b7f4e487b7100000000000000000000000000000000000000000000000000000000600052604160045260246000fd5b6102a88261025f565b810181811067ffffffffffffffff821117156102c7576102c6610270565b5b80604052505050565b60006102da610241565b90506102e6828261029f565b919050565b600067ffffffffffffffff82111561030657610305610270565b5b61030f8261025f565b9050602081019050919050565b60005b8381101561033a57808201518184015260208101905061031f565b60008484015250505050565b6000610359610354846102eb565b6102d0565b9050828152602081018484840111156103755761037461025a565b5b61038084828561031c565b509392505050565b600082601f83011261039d5761039c610255565b5b81516103ad848260208601610346565b91505092915050565b6000806000606084860312156103cf576103ce61024b565b5b600084015167ffffffffffffffff8111156103ed576103ec610250565b5b6103f986828701610388565b935050602084015167ffffffffffffffff81111561041a57610419610250565b5b61042686828701610388565b925050604084015167ffffffffffffffff81111561044757610446610250565b5b61045386828701610388565b9150509250925092565b600081519050919050565b7f4e487b7100000000000000000000000000000000000000000000000000000000600052602260045260246000fd5b600060028204905060018216806104af57607f821691505b6020821081036104c2576104c1610468565b5b50919050565b60008190508160005260206000209050919050565b60006020601f8301049050919050565b600082821b905092915050565b60006008830261052a7fffffffffffffffffffffffffffffffffffffffffffffffffffffffffffffffff826104ed565b61053486836104ed565b95508019841693508086168417925050509392505050565b6000819050919050565b6000819050919050565b600061057b6105766105718461054c565b610556565b61054c565b9050919050565b6000819050919050565b61059583610560565b6105a96105a182610582565b8484546104fa565b825550505050565b600090565b6105be6105b1565b6105c981848461058c565b505050565b5b818110156105ed576105e26000826105b6565b6001810190506105cf565b5050565b601f82111561063257610603816104c8565b61060c846104dd565b8101602085101561061b578190505b61062f610627856104dd565b8301826105ce565b50505b505050565b600082821c905092915050565b600061065560001984600802610637565b1980831691505092915050565b600061066e8383610644565b9150826002028217905092915050565b6106878261045d565b67ffffffffffffffff8111156106a05761069f610270565b5b6106aa8254610497565b6106b58282856105f1565b600060209050601f8311600181146106e857600084156106d6578287015190505b6106e08582610662565b865550610748565b601f1984166106f6866104c8565b60005b8281101561071e578489015182556001820191506020850194506020810190506106f9565b8683101561073b5784890151610737601f891682610644565b8355505b6001600288020188555050505b505050505050565b612e048061075f6000396000f3fe608060405234801561001057600080fd5b50600436106101725760003560e01c806370a08231116100de578063a22cb46511610097578063d539139311610071578063d53913931461046d578063d547741f1461048b578063d547cfb7146104a7578063e985e9c5146104c557610172565b8063a22cb46514610405578063b88d4fde14610421578063c87b56dd1461043d57610172565b806370a082311461032d57806375794a3c1461035d57806375b238fc1461037b57806391d148541461039957806395d89b41146103c9578063a217fddf146103e757610172565b8063248a9ca311610130578063248a9ca31461025d5780632f2ff15d1461028d57806336568abe146102a957806342842e0e146102c557806355f804b3146102e15780636352211e146102fd57610172565b806275a3171461017757806301ffc9a7146101a757806306fdde03146101d7578063081812fc146101f5578063095ea7b31461022557806323b872dd14610241575b600080fd5b610191600480360381019061018c91906120e6565b6104f5565b60405161019e919061215f565b60405180910390f35b6101c160048036038101906101bc91906121d2565b6105a5565b6040516101ce919061221a565b60405180910390f35b6101df6105b7565b6040516101ec91906122c5565b60405180910390f35b61020f600480360381019061020a9190612313565b610649565b60405161021c919061234f565b60405180910390f35b61023f600480360381019061023a919061236a565b610665565b005b61025b600480360381019061025691906123aa565b61067b565b005b61027760048036038101906102729190612433565b61077d565b604051610284919061246f565b60405180910390f35b6102a760048036038101906102a2919061248a565b61079d565b005b6102c360048036038101906102be919061248a565b6107bf565b005b6102df60048036038101906102da91906123aa565b61083a565b005b6102fb60048036038101906102f691906124ca565b61085a565b005b61031760048036038101906103129190612313565b61089b565b604051610324919061234f565b60405180910390f35b61034760048036038101906103429190612517565b6108ad565b604051610354919061215f565b60405180910390f35b610365610967565b604051610372919061215f565b60405180910390f35b61038361096d565b604051610390919061246f565b60405180910390f35b6103b360048036038101906103ae919061248a565b610991565b6040516103c0919061221a565b60405180910390f35b6103d16109fc565b6040516103de91906122c5565b60405180910390f35b6103ef610a8e565b6040516103fc919061246f565b60405180910390f35b61041f600480360381019061041a9190612570565b610a95565b005b61043b600480360381019061043691906126e0565b610aab565b005b61045760048036038101906104529190612313565b610ad0565b60405161046491906122c5565b60405180910390f35b610475610be3565b604051610482919061246f565b60405180910390f35b6104a560048036038101906104a0919061248a565b610c07565b005b6104af610c29565b6040516104bc91906122c5565b60405180910390f35b6104df60048036038101906104da9190612763565b610cb7565b6040516104ec919061221a565b60405180910390f35b60007f9f2df0fed2c77648de5860a4cc508cd0818c85b8b8a1ab4ceeef8d981c8956a661052181610d4b565b600860008154610530906127d2565b91905081905591506105428583610d5f565b600084849050111561059d5761059c8285858080601f016020809104026020016040519081016040528093929190818152602001838380828437600081840152601f19601f82011690508083019250505050505050610d7d565b5b509392505050565b60006105b082610dd9565b9050919050565b6060600080546105c690612849565b80601f01602080910402602001604051908101604052809291908181526020018280546105f290612849565b801561063f5780601f106106145761010080835404028352916020019161063f565b820191906000526020600020905b81548152906001019060200180831161062257829003601f168201915b5050505050905090565b600061065482610e53565b5061065e82610edb565b9050919050565b6106778282610672610f18565b610f20565b5050565b600073ffffffffffffffffffffffffffffffffffffffff168273ffffffffffffffffffffffffffffffffffffffff16036106ed5760006040517f64a0ae920000000000000000000000000000000000000000000000000000000081526004016106e4919061234f565b60405180910390fd5b600061070183836106fc610f18565b610f32565b90508373ffffffffffffffffffffffffffffffffffffffff168173ffffffffffffffffffffffffffffffffffffffff1614610777578382826040517f64283d7b00000000000000000000000000000000000000000000000000000000815260040161076e9392919061287a565b60405180910390fd5b50505050565b600060076000838152602001908152602001600020600101549050919050565b6107a68261077d565b6107af81610d4b565b6107b9838361114c565b50505050565b6107c7610f18565b73ffffffffffffffffffffffffffffffffffffffff168173ffffffffffffffffffffffffffffffffffffffff161461082b576040517f6697b23200000000000000000000000000000000000000000000000000000000815260040160405180910390fd5b610835828261123e565b505050565b61085583838360405180602001604052806000815250610aab565b505050565b7fa49807205ce4d355092ef5a8a18f56e8913cf4a201fbe287825b095693c2177561088481610d4b565b828260099182610895929190612a68565b50505050565b60006108a682610e53565b9050919050565b60008073ffffffffffffffffffffffffffffffffffffffff168273ffffffffffffffffffffffffffffffffffffffff16036109205760006040517f89c62b64000000000000000000000000000000000000000000000000000000008152600401610917919061234f565b60405180910390fd5b600360008373ffffffffffffffffffffffffffffffffffffffff1673ffffffffffffffffffffffffffffffffffffffff168152602001908152602001600020549050919050565b60085481565b7fa49807205ce4d355092ef5a8a18f56e8913cf4a201fbe287825b095693c2177581565b60006007600084815260200190815260200160002060000160008373ffffffffffffffffffffffffffffffffffffffff1673ffffffffffffffffffffffffffffffffffffffff16815260200190815260200160002060009054906101000a900460ff16905092915050565b606060018054610a0b90612849565b80601f0160208091040260200160405190810160405280929190818152602001828054610a3790612849565b8015610a845780601f10610a5957610100808354040283529160200191610a84565b820191906000526020600020905b815481529060010190602001808311610a6757829003601f168201915b5050505050905090565b6000801b81565b610aa7610aa0610f18565b8383611331565b5050565b610ab684848461067b565b610aca610ac1610f18565b858585856114a0565b50505050565b6060610adb82610e53565b506000600660008481526020019081526020016000208054610afc90612849565b80601f0160208091040260200160405190810160405280929190818152602001828054610b2890612849565b8015610b755780601f10610b4a57610100808354040283529160200191610b75565b820191906000526020600020905b815481529060010190602001808311610b5857829003601f168201915b505050505090506000610b86611651565b90506000815103610b9b578192505050610bde565b600082511115610bd0578082604051602001610bb8929190612b74565b60405160208183030381529060405292505050610bde565b610bd9846116e3565b925050505b919050565b7f9f2df0fed2c77648de5860a4cc508cd0818c85b8b8a1ab4ceeef8d981c8956a681565b610c108261077d565b610c1981610d4b565b610c23838361123e565b50505050565b60098054610c3690612849565b80601f0160208091040260200160405190810160405280929190818152602001828054610c6290612849565b8015610caf5780601f10610c8457610100808354040283529160200191610caf565b820191906000526020600020905b815481529060010190602001808311610c9257829003601f168201915b505050505081565b6000600560008473ffffffffffffffffffffffffffffffffffffffff1673ffffffffffffffffffffffffffffffffffffffff16815260200190815260200160002060008373ffffffffffffffffffffffffffffffffffffffff1673ffffffffffffffffffffffffffffffffffffffff16815260200190815260200160002060009054906101000a900460ff16905092915050565b610d5c81610d57610f18565b61174c565b50565b610d7982826040518060200160405280600081525061179d565b5050565b80600660008481526020019081526020016000209081610d9d9190612b98565b507ff8e1a15aba9398e019f0b49df1a4fde98ee17ae345cb5f6b5e2c27f5033e8ce782604051610dcd919061215f565b60405180910390a15050565b60007f7965db0b000000000000000000000000000000000000000000000000000000007bffffffffffffffffffffffffffffffffffffffffffffffffffffffff1916827bffffffffffffffffffffffffffffffffffffffffffffffffffffffff19161480610e4c5750610e4b826117c1565b5b9050919050565b600080610e5f83611822565b9050600073ffffffffffffffffffffffffffffffffffffffff168173ffffffffffffffffffffffffffffffffffffffff1603610ed257826040517f7e273289000000000000000000000000000000000000000000000000000000008152600401610ec9919061215f565b60405180910390fd5b80915050919050565b60006004600083815260200190815260200160002060009054906101000a900473ffffffffffffffffffffffffffffffffffffffff169050919050565b600033905090565b610f2d838383600161185f565b505050565b600080610f3e84611822565b9050600073ffffffffffffffffffffffffffffffffffffffff168373ffffffffffffffffffffffffffffffffffffffff1614610f8057610f7f818486611a24565b5b600073ffffffffffffffffffffffffffffffffffffffff168173ffffffffffffffffffffffffffffffffffffffff161461101157610fc260008560008061185f565b6001600360008373ffffffffffffffffffffffffffffffffffffffff1673ffffffffffffffffffffffffffffffffffffffff168152602001908152602001600020600082825403925050819055505b600073ffffffffffffffffffffffffffffffffffffffff168573ffffffffffffffffffffffffffffffffffffffff1614611094576001600360008773ffffffffffffffffffffffffffffffffffffffff1673ffffffffffffffffffffffffffffffffffffffff168152602001908152602001600020600082825401925050819055505b846002600086815260200190815260200160002060006101000a81548173ffffffffffffffffffffffffffffffffffffffff021916908373ffffffffffffffffffffffffffffffffffffffff160217905550838573ffffffffffffffffffffffffffffffffffffffff168273ffffffffffffffffffffffffffffffffffffffff167fddf252ad1be2c89b69c2b068fc378daa952ba7f163c4a11628f55a4df523b3ef60405160405180910390a4809150509392505050565b60006111588383610991565b6112335760016007600085815260200190815260200160002060000160008473ffffffffffffffffffffffffffffffffffffffff1673ffffffffffffffffffffffffffffffffffffffff16815260200190815260200160002060006101000a81548160ff0219169083151502179055506111d0610f18565b73ffffffffffffffffffffffffffffffffffffffff168273ffffffffffffffffffffffffffffffffffffffff16847f2f8788117e7eff1d82e926ec794901d17c78024a50270940304540a733656f0d60405160405180910390a460019050611238565b600090505b92915050565b600061124a8383610991565b156113265760006007600085815260200190815260200160002060000160008473ffffffffffffffffffffffffffffffffffffffff1673ffffffffffffffffffffffffffffffffffffffff16815260200190815260200160002060006101000a81548160ff0219169083151502179055506112c3610f18565b73ffffffffffffffffffffffffffffffffffffffff168273ffffffffffffffffffffffffffffffffffffffff16847ff6391f5c32d9c69d2a47ea670b442974b53935d1edc7fd64eb21e047a839171b60405160405180910390a46001905061132b565b600090505b92915050565b600073ffffffffffffffffffffffffffffffffffffffff168273ffffffffffffffffffffffffffffffffffffffff16036113a257816040517f5b08ba18000000000000000000000000000000000000000000000000000000008152600401611399919061234f565b60405180910390fd5b80600560008573ffffffffffffffffffffffffffffffffffffffff1673ffffffffffffffffffffffffffffffffffffffff16815260200190815260200160002060008473ffffffffffffffffffffffffffffffffffffffff1673ffffffffffffffffffffffffffffffffffffffff16815260200190815260200160002060006101000a81548160ff0219169083151502179055508173ffffffffffffffffffffffffffffffffffffffff168373ffffffffffffffffffffffffffffffffffffffff167f17307eab39ab6107e8899845ad3d59bd9653f200f220920489ca2b5937696c3183604051611493919061221a565b60405180910390a3505050565b60008373ffffffffffffffffffffffffffffffffffffffff163b111561164a578273ffffffffffffffffffffffffffffffffffffffff1663150b7a02868685856040518563ffffffff1660e01b81526004016114ff9493929190612cbf565b6020604051808303816000875af192505050801561153b57506040513d601f19601f820116820180604052508101906115389190612d20565b60015b6115bf573d806000811461156b576040519150601f19603f3d011682016040523d82523d6000602084013e611570565b606091505b5060008151036115b757836040517f64a0ae920000000000000000000000000000000000000000000000000000000081526004016115ae919061234f565b60405180910390fd5b805160208201fd5b63150b7a0260e01b7bffffffffffffffffffffffffffffffffffffffffffffffffffffffff1916817bffffffffffffffffffffffffffffffffffffffffffffffffffffffff19161461164857836040517f64a0ae9200000000000000000000000000000000000000000000000000000000815260040161163f919061234f565b60405180910390fd5b505b5050505050565b60606009805461166090612849565b80601f016020809104026020016040519081016040528092919081815260200182805461168c90612849565b80156116d95780601f106116ae576101008083540402835291602001916116d9565b820191906000526020600020905b8154815290600101906020018083116116bc57829003601f168201915b5050505050905090565b60606116ee82610e53565b5060006116f9611651565b905060008151116117195760405180602001604052806000815250611744565b8061172384611ae8565b604051602001611734929190612b74565b6040516020818303038152906040525b915050919050565b6117568282610991565b6117995780826040517fe2517d3f000000000000000000000000000000000000000000000000000000008152600401611790929190612d4d565b60405180910390fd5b5050565b6117a78383611bb6565b6117bc6117b2610f18565b60008585856114a0565b505050565b6000634906490660e01b7bffffffffffffffffffffffffffffffffffffffffffffffffffffffff1916827bffffffffffffffffffffffffffffffffffffffffffffffffffffffff1916148061181b575061181a82611caf565b5b9050919050565b60006002600083815260200190815260200160002060009054906101000a900473ffffffffffffffffffffffffffffffffffffffff169050919050565b80806118985750600073ffffffffffffffffffffffffffffffffffffffff168273ffffffffffffffffffffffffffffffffffffffff1614155b156119cc5760006118a884610e53565b9050600073ffffffffffffffffffffffffffffffffffffffff168373ffffffffffffffffffffffffffffffffffffffff161415801561191357508273ffffffffffffffffffffffffffffffffffffffff168173ffffffffffffffffffffffffffffffffffffffff1614155b801561192657506119248184610cb7565b155b1561196857826040517fa9fbf51f00000000000000000000000000000000000000000000000000000000815260040161195f919061234f565b60405180910390fd5b81156119ca57838573ffffffffffffffffffffffffffffffffffffffff168273ffffffffffffffffffffffffffffffffffffffff167f8c5be1e5ebec7d5bd14f71427d1e84f3dd0314c0f7b2291e5b200ac8c7c3b92560405160405180910390a45b505b836004600085815260200190815260200160002060006101000a81548173ffffffffffffffffffffffffffffffffffffffff021916908373ffffffffffffffffffffffffffffffffffffffff16021790555050505050565b611a2f838383611d91565b611ae357600073ffffffffffffffffffffffffffffffffffffffff168373ffffffffffffffffffffffffffffffffffffffff1603611aa457806040517f7e273289000000000000000000000000000000000000000000000000000000008152600401611a9b919061215f565b60405180910390fd5b81816040517f177e802f000000000000000000000000000000000000000000000000000000008152600401611ada929190612d76565b60405180910390fd5b505050565b606060006001611af784611e52565b01905060008167ffffffffffffffff811115611b1657611b156125b5565b5b6040519080825280601f01601f191660200182016040528015611b485781602001600182028036833780820191505090505b509050600082602083010190505b600115611bab578080600190039150507f3031323334353637383961626364656600000000000000000000000000000000600a86061a8153600a8581611b9f57611b9e612d9f565b5b04945060008503611b56575b819350505050919050565b600073ffffffffffffffffffffffffffffffffffffffff168273ffffffffffffffffffffffffffffffffffffffff1603611c285760006040517f64a0ae92000000000000000000000000000000000000000000000000000000008152600401611c1f919061234f565b60405180910390fd5b6000611c3683836000610f32565b9050600073ffffffffffffffffffffffffffffffffffffffff168173ffffffffffffffffffffffffffffffffffffffff1614611caa5760006040517f73c6ac6e000000000000000000000000000000000000000000000000000000008152600401611ca1919061234f565b60405180910390fd5b505050565b60007f80ac58cd000000000000000000000000000000000000000000000000000000007bffffffffffffffffffffffffffffffffffffffffffffffffffffffff1916827bffffffffffffffffffffffffffffffffffffffffffffffffffffffff19161480611d7a57507f5b5e139f000000000000000000000000000000000000000000000000000000007bffffffffffffffffffffffffffffffffffffffffffffffffffffffff1916827bffffffffffffffffffffffffffffffffffffffffffffffffffffffff1916145b80611d8a5750611d8982611fa5565b5b9050919050565b60008073ffffffffffffffffffffffffffffffffffffffff168373ffffffffffffffffffffffffffffffffffffffff1614158015611e4957508273ffffffffffffffffffffffffffffffffffffffff168473ffffffffffffffffffffffffffffffffffffffff161480611e0a5750611e098484610cb7565b5b80611e4857508273ffffffffffffffffffffffffffffffffffffffff16611e3083610edb565b73ffffffffffffffffffffffffffffffffffffffff16145b5b90509392505050565b600080600090507a184f03e93ff9f4daa797ed6e38ed64bf6a1f0100000000000000008310611eb0577a184f03e93ff9f4daa797ed6e38ed64bf6a1f0100000000000000008381611ea657611ea5612d9f565b5b0492506040810190505b6d04ee2d6d415b85acef81000000008310611eed576d04ee2d6d415b85acef81000000008381611ee357611ee2612d9f565b5b0492506020810190505b662386f26fc100008310611f1c57662386f26fc100008381611f1257611f11612d9f565b5b0492506010810190505b6305f5e1008310611f45576305f5e1008381611f3b57611f3a612d9f565b5b0492506008810190505b6127108310611f6a576127108381611f6057611f5f612d9f565b5b0492506004810190505b60648310611f8d5760648381611f8357611f82612d9f565b5b0492506002810190505b600a8310611f9c576001810190505b80915050919050565b60007f01ffc9a7000000000000000000000000000000000000000000000000000000007bffffffffffffffffffffffffffffffffffffffffffffffffffffffff1916827bffffffffffffffffffffffffffffffffffffffffffffffffffffffff1916149050919050565b6000604051905090565b600080fd5b600080fd5b600073ffffffffffffffffffffffffffffffffffffffff82169050919050565b600061204e82612023565b9050919050565b61205e81612043565b811461206957600080fd5b50565b60008135905061207b81612055565b92915050565b600080fd5b600080fd5b600080fd5b60008083601f8401126120a6576120a5612081565b5b8235905067ffffffffffffffff8111156120c3576120c2612086565b5b6020830191508360018202830111156120df576120de61208b565b5b9250929050565b6000806000604084860312156120ff576120fe612019565b5b600061210d8682870161206c565b935050602084013567ffffffffffffffff81111561212e5761212d61201e565b5b61213a86828701612090565b92509250509250925092565b6000819050919050565b61215981612146565b82525050565b60006020820190506121746000830184612150565b92915050565b60007fffffffff0000000000000000000000000000000000000000000000000000000082169050919050565b6121af8161217a565b81146121ba57600080fd5b50565b6000813590506121cc816121a6565b92915050565b6000602082840312156121e8576121e7612019565b5b60006121f6848285016121bd565b91505092915050565b60008115159050919050565b612214816121ff565b82525050565b600060208201905061222f600083018461220b565b92915050565b600081519050919050565b600082825260208201905092915050565b60005b8381101561226f578082015181840152602081019050612254565b60008484015250505050565b6000601f19601f8301169050919050565b600061229782612235565b6122a18185612240565b93506122b1818560208601612251565b6122ba8161227b565b840191505092915050565b600060208201905081810360008301526122df818461228c565b905092915050565b6122f081612146565b81146122fb57600080fd5b50565b60008135905061230d816122e7565b92915050565b60006020828403121561232957612328612019565b5b6000612337848285016122fe565b91505092915050565b61234981612043565b82525050565b60006020820190506123646000830184612340565b92915050565b6000806040838503121561238157612380612019565b5b600061238f8582860161206c565b92505060206123a0858286016122fe565b9150509250929050565b6000806000606084860312156123c3576123c2612019565b5b60006123d18682870161206c565b93505060206123e28682870161206c565b92505060406123f3868287016122fe565b9150509250925092565b6000819050919050565b612410816123fd565b811461241b57600080fd5b50565b60008135905061242d81612407565b92915050565b60006020828403121561244957612448612019565b5b60006124578482850161241e565b91505092915050565b612469816123fd565b82525050565b60006020820190506124846000830184612460565b92915050565b600080604083850312156124a1576124a0612019565b5b60006124af8582860161241e565b92505060206124c08582860161206c565b9150509250929050565b600080602083850312156124e1576124e0612019565b5b600083013567ffffffffffffffff8111156124ff576124fe61201e565b5b61250b85828601612090565b92509250509250929050565b60006020828403121561252d5761252c612019565b5b600061253b8482850161206c565b91505092915050565b61254d816121ff565b811461255857600080fd5b50565b60008135905061256a81612544565b92915050565b6000806040838503121561258757612586612019565b5b60006125958582860161206c565b92505060206125a68582860161255b565b9150509250929050565b600080fd5b7f4e487b7100000000000000000000000000000000000000000000000000000000600052604160045260246000fd5b6125ed8261227b565b810181811067ffffffffffffffff8211171561260c5761260b6125b5565b5b80604052505050565b600061261f61200f565b905061262b82826125e4565b919050565b600067ffffffffffffffff82111561264b5761264a6125b5565b5b6126548261227b565b9050602081019050919050565b82818337600083830152505050565b600061268361267e84612630565b612615565b90508281526020810184848401111561269f5761269e6125b0565b5b6126aa848285612661565b509392505050565b600082601f8301126126c7576126c6612081565b5b81356126d7848260208601612670565b91505092915050565b600080600080608085870312156126fa576126f9612019565b5b60006127088782880161206c565b94505060206127198782880161206c565b935050604061272a878288016122fe565b925050606085013567ffffffffffffffff81111561274b5761274a61201e565b5b612757878288016126b2565b91505092959194509250565b6000806040838503121561277a57612779612019565b5b60006127888582860161206c565b92505060206127998582860161206c565b9150509250929050565b7f4e487b7100000000000000000000000000000000000000000000000000000000600052601160045260246000fd5b60006127dd82612146565b91507fffffffffffffffffffffffffffffffffffffffffffffffffffffffffffffffff820361280f5761280e6127a3565b5b600182019050919050565b7f4e487b7100000000000000000000000000000000000000000000000000000000600052602260045260246000fd5b6000600282049050600182168061286157607f821691505b6020821081036128745761287361281a565b5b50919050565b600060608201905061288f6000830186612340565b61289c6020830185612150565b6128a96040830184612340565b949350505050565b600082905092915050565b60008190508160005260206000209050919050565b60006020601f8301049050919050565b600082821b905092915050565b60006008830261291e7fffffffffffffffffffffffffffffffffffffffffffffffffffffffffffffffff826128e1565b61292886836128e1565b95508019841693508086168417925050509392505050565b6000819050919050565b600061296561296061295b84612146565b612940565b612146565b9050919050565b6000819050919050565b61297f8361294a565b61299361298b8261296c565b8484546128ee565b825550505050565b600090565b6129a861299b565b6129b3818484612976565b505050565b5b818110156129d7576129cc6000826129a0565b6001810190506129b9565b5050565b601f821115612a1c576129ed816128bc565b6129f6846128d1565b81016020851015612a05578190505b612a19612a11856128d1565b8301826129b8565b50505b505050565b600082821c905092915050565b6000612a3f60001984600802612a21565b1980831691505092915050565b6000612a588383612a2e565b9150826002028217905092915050565b612a7283836128b1565b67ffffffffffffffff811115612a8b57612a8a6125b5565b5b612a958254612849565b612aa08282856129db565b6000601f831160018114612acf5760008415612abd578287013590505b612ac78582612a4c565b865550612b2f565b601f198416612add866128bc565b60005b82811015612b0557848901358255600182019150602085019450602081019050612ae0565b86831015612b225784890135612b1e601f891682612a2e565b8355505b6001600288020188555050505b50505050505050565b600081905092915050565b6000612b4e82612235565b612b588185612b38565b9350612b68818560208601612251565b80840191505092915050565b6000612b808285612b43565b9150612b8c8284612b43565b91508190509392505050565b612ba182612235565b67ffffffffffffffff811115612bba57612bb96125b5565b5b612bc48254612849565b612bcf8282856129db565b600060209050601f831160018114612c025760008415612bf0578287015190505b612bfa8582612a4c565b865550612c62565b601f198416612c10866128bc565b60005b82811015612c3857848901518255600182019150602085019450602081019050612c13565b86831015612c555784890151612c51601f891682612a2e565b8355505b6001600288020188555050505b505050505050565b600081519050919050565b600082825260208201905092915050565b6000612c9182612c6a565b612c9b8185612c75565b9350612cab818560208601612251565b612cb48161227b565b840191505092915050565b6000608082019050612cd46000830187612340565b612ce16020830186612340565b612cee6040830185612150565b8181036060830152612d008184612c86565b905095945050505050565b600081519050612d1a816121a6565b92915050565b600060208284031215612d3657612d35612019565b5b6000612d4484828501612d0b565b91505092915050565b6000604082019050612d626000830185612340565b612d6f6020830184612460565b9392505050565b6000604082019050612d8b6000830185612340565b612d986020830184612150565b9392505050565b7f4e487b7100000000000000000000000000000000000000000000000000000000600052601260045260246000fdfea2646970667358221220180855dae66119858d6b154c5b824831da5e2418761b488c09578fe5f5b142dc64736f6c634300081c0033",
  "linkReferences": {},
  "deployedLinkReferences": {}
}