{
  "_format": "hh-sol-artifact-1",
  "contractName": "CheckIn",
  "sourceName": "contracts/CheckIn.sol",
  "abi": [
    {
      "inputs": [
        {
          "internalType": "address",
          "name": "ticketAddress",
          "type": "address"
        }
      ],
      "stateMutability": "nonpayable",
      "type": "constructor"
    },
    {
      "inputs": [],
      "name": "AccessControlBadConfirmation",
      "type": "error"
    },
    {
      "inputs": [
        {
          "internalType": "address",
          "name": "account",
          "type": "address"
        },
        {
          "internalType": "bytes32",
          "name": "neededRole",
          "type": "bytes32"
        }
      ],
      "name": "AccessControlUnauthorizedAccount",
      "type": "error"
    },
    {
      "anonymous": false,
      "inputs": [
        {
          "indexed": true,
          "internalType": "address",
          "name": "holder",
          "type": "address"
        },
        {
          "indexed": true,
          "internalType": "uint256",
          "name": "tokenId",
          "type": "uint256"
        },
        {
          "indexed": true,
          "internalType": "address",
          "name": "verifier",
          "type": "address"
        },
        {
          "indexed": false,
          "internalType": "uint256",
          "name": "timestamp",
          "type": "uint256"
        }
      ],
      "name": "CheckedIn",
      "type": "event"
    },
    {
      "anonymous": false,
      "inputs": [
        {
          "indexed": true,
          "internalType": "bytes32",
          "name": "role",
          "type": "bytes32"
        },
        {
          "indexed": true,
          "internalType": "bytes32",
          "name": "previousAdminRole",
          "type": "bytes32"
        },
        {
          "indexed": true,
          "internalType": "bytes32",
          "name": "newAdminRole",
          "type": "bytes32"
        }
      ],
      "name": "RoleAdminChanged",
      "type": "event"
    },
    {
      "anonymous": false,
      "inputs": [
        {
          "indexed": true,
          "internalType": "bytes32",
          "name": "role",
          "type": "bytes32"
        },
        {
          "indexed": true,
          "internalType": "address",
          "name": "account",
          "type": "address"
        },
        {
          "indexed": true,
          "internalType": "address",
          "name": "sender",
          "type": "address"
        }
      ],
      "name": "RoleGranted",
      "type": "event"
    },
    {
      "anonymous": false,
      "inputs": [
        {
          "indexed": true,
          "internalType": "bytes32",
          "name": "role",
          "type": "bytes32"
        },
        {
          "indexed": true,
          "internalType": "address",
          "name": "account",
          "type": "address"
        },
        {
          "indexed": true,
          "internalType": "address",
          "name": "sender",
          "type": "address"
        }
      ],
      "name": "RoleRevoked",
      "type": "event"
    },
    {
      "inputs": [],
      "name": "DEFAULT_ADMIN_ROLE",
      "outputs": [
        {
          "internalType": "bytes32",
          "name": "",
          "type": "bytes32"
        }
      ],
      "stateMutability": "view",
      "type": "function"
    },
    {
      "inputs": [],
      "name": "VERIFIER_ROLE",
      "outputs": [
        {
          "internalType": "bytes32",
          "name": "",
          "type": "bytes32"
        }
      ],
      "stateMutability": "view",
      "type": "function"
    },
    {
      "inputs": [
        {
          "internalType": "uint256",
          "name": "tokenId",
          "type": "uint256"
        }
      ],
      "name": "checkIn",
      "outputs": [],
      "stateMutability": "nonpayable",
      "type": "function"
    },
    {
      "inputs": [
        {
          "internalType": "uint256",
          "name": "",
          "type": "uint256"
        }
      ],
      "name": "checkedIn",
      "outputs": [
        {
          "internalType": "bool",
          "name": "",
          "type": "bool"
        }
      ],
      "stateMutability": "view",
      "type": "function"
    },
    {
      "inputs": [
        {
          "internalType": "bytes32",
          "name": "role",
          "type": "bytes32"
        }
      ],
      "name": "getRoleAdmin",
      "outputs": [
        {
          "internalType": "bytes32",
          "name": "",
          "type": "bytes32"
        }
      ],
      "stateMutability": "view",
      "type": "function"
    },
    {
      "inputs": [
        {
          "internalType": "bytes32",
          "name": "role",
          "type": "bytes32"
        },
        {
          "internalType": "address",
          "name": "account",
          "type": "address"
        }
      ],
      "name": "grantRole",
      "outputs": [],
      "stateMutability": "nonpayable",
      "type": "function"
    },
    {
      "inputs": [
        {
          "internalType": "bytes32",
          "name": "role",
          "type": "bytes32"
        },
        {
          "internalType": "address",
          "name": "account",
          "type": "address"
        }
      ],
      "name": "hasRole",
      "outputs": [
        {
          "internalType": "bool",
          "name": "",
          "type": "bool"
        }
      ],
      "stateMutability": "view",
      "type": "function"
    },
    {
      "inputs": [
        {
          "internalType": "bytes32",
          "name": "role",
          "type": "bytes32"
        },
        {
          "internalType": "address",
          "name": "callerConfirmation",
          "type": "address"
        }
      ],
      "name": "renounceRole",
      "outputs": [],
      "stateMutability": "nonpayable",
      "type": "function"
    },
    {
      "inputs": [
        {
          "internalType": "bytes32",
          "name": "role",
          "type": "bytes32"
        },
        {
          "internalType": "address",
          "name": "account",
          "type": "address"
        }
      ],
      "name": "revokeRole",
      "outputs": [],
      "stateMutability": "nonpayable",
      "type": "function"
    },
    {
      "inputs": [
        {
          "internalType": "bytes4",
          "name": "interfaceId",
          "type": "bytes4"
        }
      ],
      "name": "supportsInterface",
      "outputs": [
        {
          "internalType": "bool",
          "name": "",
          "type": "bool"
        }
      ],
      "stateMutability": "view",
      "type": "function"
    },
    {
      "inputs": [],
      "name": "ticket",
      "outputs": [
        {
          "internalType": "contract IERC721",
          "name": "",
          "type": "address"
        }
      ],
      "stateMutability": "view",
      "type": "function"
    }
  ],
  "bytecode": "0x60a060405234801561001057600080fd5b50604051610fd3380380610fd383398181016040528101906100329190610283565b8073ffffffffffffffffffffffffffffffffffffffff1660808173ffffffffffffffffffffffffffffffffffffffff16815250506100796000801b336100b160201b60201c565b506100aa7f0ce23c3e399818cfee81a7ab0880f714e53d7672b08df0fa62f2843416e1ea09336100b160201b60201c565b50506102b0565b60006100c383836101ae60201b60201c565b6101a357600160008085815260200190815260200160002060000160008473ffffffffffffffffffffffffffffffffffffffff1673ffffffffffffffffffffffffffffffffffffffff16815260200190815260200160002060006101000a81548160ff02191690831515021790555061014061021860201b60201c565b73ffffffffffffffffffffffffffffffffffffffff168273ffffffffffffffffffffffffffffffffffffffff16847f2f8788117e7eff1d82e926ec794901d17c78024a50270940304540a733656f0d60405160405180910390a4600190506101a8565b600090505b92915050565b600080600084815260200190815260200160002060000160008373ffffffffffffffffffffffffffffffffffffffff1673ffffffffffffffffffffffffffffffffffffffff16815260200190815260200160002060009054906101000a900460ff16905092915050565b600033905090565b600080fd5b600073ffffffffffffffffffffffffffffffffffffffff82169050919050565b600061025082610225565b9050919050565b61026081610245565b811461026b57600080fd5b50565b60008151905061027d81610257565b92915050565b60006020828403121561029957610298610220565b5b60006102a78482850161026e565b91505092915050565b608051610d016102d26000396000818161039001526104f80152610d016000f3fe608060405234801561001057600080fd5b50600436106100a95760003560e01c80636cc25db7116100715780636cc25db71461017657806391d1485414610194578063a217fddf146101c4578063d547741f146101e2578063e7705db6146101fe578063e95a644f1461021c576100a9565b806301ffc9a7146100ae57806302086596146100de578063248a9ca31461010e5780632f2ff15d1461013e57806336568abe1461015a575b600080fd5b6100c860048036038101906100c3919061093f565b610238565b6040516100d59190610987565b60405180910390f35b6100f860048036038101906100f391906109d8565b6102b2565b6040516101059190610987565b60405180910390f35b61012860048036038101906101239190610a3b565b6102d2565b6040516101359190610a77565b60405180910390f35b61015860048036038101906101539190610af0565b6102f1565b005b610174600480360381019061016f9190610af0565b610313565b005b61017e61038e565b60405161018b9190610b8f565b60405180910390f35b6101ae60048036038101906101a99190610af0565b6103b2565b6040516101bb9190610987565b60405180910390f35b6101cc61041c565b6040516101d99190610a77565b60405180910390f35b6101fc60048036038101906101f79190610af0565b610423565b005b610206610445565b6040516102139190610a77565b60405180910390f35b610236600480360381019061023191906109d8565b610469565b005b60007f7965db0b000000000000000000000000000000000000000000000000000000007bffffffffffffffffffffffffffffffffffffffffffffffffffffffff1916827bffffffffffffffffffffffffffffffffffffffffffffffffffffffff191614806102ab57506102aa82610628565b5b9050919050565b60016020528060005260406000206000915054906101000a900460ff1681565b6000806000838152602001908152602001600020600101549050919050565b6102fa826102d2565b61030381610692565b61030d83836106a6565b50505050565b61031b610797565b73ffffffffffffffffffffffffffffffffffffffff168173ffffffffffffffffffffffffffffffffffffffff161461037f576040517f6697b23200000000000000000000000000000000000000000000000000000000815260040160405180910390fd5b610389828261079f565b505050565b7f000000000000000000000000000000000000000000000000000000000000000081565b600080600084815260200190815260200160002060000160008373ffffffffffffffffffffffffffffffffffffffff1673ffffffffffffffffffffffffffffffffffffffff16815260200190815260200160002060009054906101000a900460ff16905092915050565b6000801b81565b61042c826102d2565b61043581610692565b61043f838361079f565b50505050565b7f0ce23c3e399818cfee81a7ab0880f714e53d7672b08df0fa62f2843416e1ea0981565b7f0ce23c3e399818cfee81a7ab0880f714e53d7672b08df0fa62f2843416e1ea0961049381610692565b6001600083815260200190815260200160002060009054906101000a900460ff16156104f4576040517f08c379a00000000000000000000000000000000000000000000000000000000081526004016104eb90610c07565b60405180910390fd5b60007f000000000000000000000000000000000000000000000000000000000000000073ffffffffffffffffffffffffffffffffffffffff16636352211e846040518263ffffffff1660e01b815260040161054f9190610c36565b602060405180830381865afa15801561056c573d6000803e3d6000fd5b505050506040513d601f19601f820116820180604052508101906105909190610c66565b9050600180600085815260200190815260200160002060006101000a81548160ff0219169083151502179055503373ffffffffffffffffffffffffffffffffffffffff16838273ffffffffffffffffffffffffffffffffffffffff167f0b035a54ab4f796312927d7e17fb1e0c5f43adf7a8a4bc46059842bd1e438d874260405161061b9190610c36565b60405180910390a4505050565b60007f01ffc9a7000000000000000000000000000000000000000000000000000000007bffffffffffffffffffffffffffffffffffffffffffffffffffffffff1916827bffffffffffffffffffffffffffffffffffffffffffffffffffffffff1916149050919050565b6106a38161069e610797565b610891565b50565b60006106b283836103b2565b61078c57600160008085815260200190815260200160002060000160008473ffffffffffffffffffffffffffffffffffffffff1673ffffffffffffffffffffffffffffffffffffffff16815260200190815260200160002060006101000a81548160ff021916908315150217905550610729610797565b73ffffffffffffffffffffffffffffffffffffffff168273ffffffffffffffffffffffffffffffffffffffff16847f2f8788117e7eff1d82e926ec794901d17c78024a50270940304540a733656f0d60405160405180910390a460019050610791565b600090505b92915050565b600033905090565b60006107ab83836103b2565b1561088657600080600085815260200190815260200160002060000160008473ffffffffffffffffffffffffffffffffffffffff1673ffffffffffffffffffffffffffffffffffffffff16815260200190815260200160002060006101000a81548160ff021916908315150217905550610823610797565b73ffffffffffffffffffffffffffffffffffffffff168273ffffffffffffffffffffffffffffffffffffffff16847ff6391f5c32d9c69d2a47ea670b442974b53935d1edc7fd64eb21e047a839171b60405160405180910390a46001905061088b565b600090505b92915050565b61089b82826103b2565b6108de5780826040517fe2517d3f0000000000000000000000000000000000000000000000000000000081526004016108d5929190610ca2565b60405180910390fd5b5050565b600080fd5b60007fffffffff0000000000000000000000000000000000000000000000000000000082169050919050565b61091c816108e7565b811461092757600080fd5b50565b60008135905061093981610913565b92915050565b600060208284031215610955576109546108e2565b5b60006109638482850161092a565b91505092915050565b60008115159050919050565b6109818161096c565b82525050565b600060208201905061099c6000830184610978565b92915050565b6000819050919050565b6109b5816109a2565b81146109c057600080fd5b50565b6000813590506109d2816109ac565b92915050565b6000602082840312156109ee576109ed6108e2565b5b60006109fc848285016109c3565b91505092915050565b6000819050919050565b610a1881610a05565b8114610a2357600080fd5b50565b600081359050610a3581610a0f565b92915050565b600060208284031215610a5157610a506108e2565b5b6000610a5f84828501610a26565b91505092915050565b610a7181610a05565b82525050565b6000602082019050610a8c6000830184610a68565b92915050565b600073ffffffffffffffffffffffffffffffffffffffff82169050919050565b6000610abd82610a92565b9050919050565b610acd81610ab2565b8114610ad857600080fd5b50565b600081359050610aea81610ac4565b92915050565b60008060408385031215610b0757610b066108e2565b5b6000610b1585828601610a26565b9250506020610b2685828601610adb565b9150509250929050565b6000819050919050565b6000610b55610b50610b4b84610a92565b610b30565b610a92565b9050919050565b6000610b6782610b3a565b9050919050565b6000610b7982610b5c565b9050919050565b610b8981610b6e565b82525050565b6000602082019050610ba46000830184610b80565b92915050565b600082825260208201905092915050565b7f416c726561647920636865636b656420696e0000000000000000000000000000600082015250565b6000610bf1601283610baa565b9150610bfc82610bbb565b602082019050919050565b60006020820190508181036000830152610c2081610be4565b9050919050565b610c30816109a2565b82525050565b6000602082019050610c4b6000830184610c27565b92915050565b600081519050610c6081610ac4565b92915050565b600060208284031215610c7c57610c7b6108e2565b5b6000610c8a84828501610c51565b91505092915050565b610c9c81610ab2565b82525050565b6000604082019050610cb76000830185610c93565b610cc46020830184610a68565b939250505056fea26469706673582212201acd8618bcc214c1a976855810e5afe405611b949f390bce94a6e5c31d99ef6f64736f6c634300081c0033",
  "linkReferences": {},
  "deployedLinkReferences": {}
}